:020000040800F2
:10000000C006002091010008D70C0008C10A0008B2
:10001000D30C0008B1050008090F0008000000001B
:10002000000000000000000000000000F10D0008CA
:1000300061070008000000005D0D0008A50E000823
:10004000AB010008AB010008AB010008AB010008E0
:10005000AB010008AB01000865070008890700082C
:10006000D5070008AB010008AB010008AB01000890
:10007000AB010008AB010008AB010008AB010008B0
:10008000AB010008AB010008AB010008AB010008A0
:10009000AB010008AB010008AB010008AB01000890
:1000A000AB010008AB010008AB010008AB01000880
:1000B000AB010008AB01000800000000AB01000824
:1000C000AB0100080000000000000000AB010008C8
:1000D00000000000AB010008AB01000800000000B8
:1000E000AB010008AB010008AB01000800F002F80A
:1000F00000F03FF80AA090E8000C82448344AAF183
:100100000107DA4501D100F034F8AFF2090EBAE880
:100110000F0013F0010F18BFFB1A43F0010318473B
:100120002810000048100000103A24BF78C878C199
:10013000FAD8520724BF30C830C144BF04680C60ED
:10014000704700000023002400250026103A28BF35
:1001500078C1FBD8520728BF30C148BF0B60704739
:10016000642900F07D80002070471FB51FBD10B5C9
:1001700010BD00F02AF91146FFF7F7FF00F0F8FE76
:1001800000F048F903B4FFF7F2FF03BC00F04CF9AC
:100190000948804709480047FEE7FEE7FEE7FEE71B
:1001A000FEE7FEE7FEE7FEE7FEE7FEE70448054957
:1001B000054A064B70470000A90E0008ED00000834
:1001C000C0000020C0060020C0020020C0020020A5
:1001D0000FB41CB5074B06AA7B44694600900598EE
:1001E00000F0DBF80020694600F0EAF81CBC5DF87E
:1001F00014FB0000E50100002DE9F0410E46044625
:10020000002020622046E168884730B3252805D0C9
:10021000D4E901219047206A401CF2E7E1682046BA
:1002200000278847050018D0A5F14100192802D8F9
:1002300020354FF400673246294620462760FFF7F5
:100240008FFF40B1012804D0F61D26F007060836BE
:10025000D8E7361DD6E72846DAE7206ABDE8F08100
:100260002DE9F0410646002410687529314616A58F
:1002700010D0AFF30080002802DA404213A507E057
:1002800031688A0701D512A502E0490704D511A5F6
:10029000012401E0AFF3008000210A2206F12407C7
:1002A00009E0B0FBF2FCB0FBF2F302FB1C003030C3
:1002B00078541846491C0028F3D123462A46304674
:1002C000BDE8F04100F00BB8000000002D00000078
:1002D0002B000000200000007047704770472DE998
:1002E000F0470D4699469246044600F124080168FD
:1002F000880604D5E06921F01001216000E00120AA
:10030000A84201DD471B00E00027A1697A1902EB32
:100310000900081AA0612078C00602D42046AFF375
:100320000080002608E0D4E901211AF80600904771
:10033000206A401C761C20624E45F4DB2078C00603
:100340000AD52046AFF3008006E0D4E90121302031
:100350009047206A401C2062381EA7F10107F4DC98
:1003600007E0D4E9012118F805009047206A401CF5
:100370002062281EA5F10105F3DC2046AFF30080C2
:100380002078000602D50220BDE8F0870120FBE7B7
:1003900001694A1C02610878704700B58FB0CDE949
:1003A00001310021059105497944CDE90310114639
:1003B0006846FFF721FF0FB000BD0000E5FFFFFF1B
:1003C0000A6802F8010B0A607047754600F028F8C9
:1003D000AE4605006946534620F00700854618B032
:1003E00020B5FFF7E3FEBDE820404FF000064FF0D8
:1003F00000074FF000084FF0000B21F00701AC465A
:10040000ACE8C009ACE8C009ACE8C009ACE8C00978
:100410008D4670470446AFF300802046FFF7B2FEDA
:10042000004870476000002001491820ABBEFEE77D
:10043000260002007047000000B587B001214FF48C
:10044000017000F099FC00208DF81B000C20ADF825
:10045000180006A9194800F09BFA194800F03EF868
:10046000002001908DF808008DF809004FF46020FD
:1004700003900020049001208DF8140001A9104879
:1004800000F064F84FF4004000F06AFC01210C48D1
:1004900000F018F80A4800F081F800BF084800F0A2
:1004A0004BF80028FAD1064800F07DF800BF044858
:1004B00000F042F80028FAD107B000BD0008014062
:1004C0000024014021B1826842F00102826003E011
:1004D000826822F0010282607047000010B5044675
:1004E0001248844208D10121401500F055FC00213A
:1004F000601500F051FC17E00D48844208D101213D
:10050000001500F049FC0021201500F045FC0BE02F
:100510000848844208D10121C80300F03DFC0021B5
:100520004FF4004000F038FC10BD000000240140F2
:1005300000280140003C0140014600208A6802F08A
:1005400004020AB1012000E00020704730B50246E5
:100550000020002350680F4C20400D790C6844EABD
:1005600005242043506090680B4C2040D1E9025490
:100570002C434D7944EA450420439060D06A20F42E
:1005800070000C7C641EE4B2234340EA0350D06246
:1005900030BD0000FFFEF0FFFDF7F1FF816841F084
:1005A000080181607047816841F0040181607047F3
:1005B00000BFFEE770B50024002525E0012600BF3E
:1005C0004021134800F06FFA20B9300006F1010114
:1005D000CEB2F5D1182000F0C3FC640040210C48D5
:1005E00000F061FA012801D144F00104012600BFA6
:1005F0004021074800F057FA20B1300006F1010110
:10060000CEB2F5D1681CC5B2082DD7DB204670BD2F
:10061000000801400348C0780249897840EA012077
:10062000704700000900002003484078024909781B
:1006300040EA0120704700000900002010B50121A8
:10064000042000F099FB00F079F8002002490870BE
:1006500048708870C87010BD090000202DE9F0476F
:100660004FF0010900F06AF8012028490860402194
:10067000274800F021FA122000F048FC40212448CD
:1006800000F01CFA00F048F84021214800F00BFA75
:10069000002839D100BF00BF40211D4800F003FAF7
:1006A00020B15FEA090009F10109F5D14FF0010914
:1006B00000BF4021164800F0F6F920B95FEA0900B2
:1006C00009F10109F5D1362000F04AFCFFF772FF6D
:1006D0000646FFF76FFF0746FFF76CFF0446FFF77C
:1006E00069FF0546FFF766FF8046F019204441196F
:1006F000414507D107498E70CF700C704D700120B5
:10070000BDE8F0870020FBE70020F9E798012142CF
:10071000000801400900002008B54020ADF80000A5
:1007200048208DF8030003208DF802006946024836
:1007300000F02EF908BD00000008014008B5402077
:10074000ADF8000010208DF8030003208DF80200A2
:100750006946024800F01CF908BD0000000801408D
:100760007047000010B507480078401C0549087024
:1007700008460078032801DD00200870102000F0F2
:100780004FF810BD0800002010B50F480078012870
:1007900008D10E480088642804DA0C480088401C00
:1007A0000A49088008480078022808D108480088CB
:1007B000642804DA06480088401C05490880102097
:1007C00000F02EF810BD00000800002004000020FA
:1007D0000600002010B50F480078012808D10E4807
:1007E0000088002804DD0C480088401E0A49088063
:1007F00008480078022808D108480088002804DD4D
:1008000006480088401E05490880102000F008F8BE
:1008100010BD000008000020040000200600002099
:100820000149086070470000140401400021234979
:100830008279002A3AD00A46126803689A430B4626
:100840001A600A1D126803689A430B1D1A60027928
:1008500011440A6803681A430A60184A0832126889
:1008600003689A43154B08331A601A1D126803680F
:100870009A43124B0C331A604279102A0ED11A1F78
:10088000126803681A430D4B08331A601A1D126868
:1008900003681A43094B0C331A600DE0074942798B
:1008A00011440A6803681A430A6005E0027911449A
:1008B0000A6803689A430A60704700000004014018
:1008C0000EB50121084600F057FA0021012000F082
:1008D0003FF80121084600F03BF80221012000F01A
:1008E00037F80720009000208DF804000C208DF8C8
:1008F00005006846FFF79AFF06208DF808000220E1
:100900008DF809008DF80A0001208DF80B0002A86F
:1009100000F0E2F907208DF8080002208DF80900A8
:100920008DF80A0001208DF80B0002A800F0D4F920
:1009300008208DF8080002208DF809008DF80A00C3
:1009400001208DF80B0002A800F0C6F90EBD0000D2
:1009500030B500228B071C0F0F2303FA04F20B4B58
:100960008C1053F824309343084C8D1044F82530F4
:1009700023468C1053F824308C07240F00FA04F41B
:100980002343024C8D1044F8253030BD080001404F
:100990002DE9F04102460025002600200023002416
:1009A000002791F803C00CF00F0591F803C00CF07C
:1009B000100CBCF1000F03D091F802C04CEA050501
:1009C00091F800C0BCF1000F31D0146800202BE07A
:1009D0004FF0010C0CFA00F3B1F800C00CEA03066A
:1009E0009E4220D183004FF00F0C0CFA03F7BC435A
:1009F00005FA03FC4CEA040491F803C0BCF1280F8B
:100A000006D14FF0010C0CFA00FCC2F814C00AE049
:100A100091F803C0BCF1480F05D14FF0010C0CFA5E
:100A200000FCC2F810C0401C0828D1D31460B1F8F3
:100A300000C0BCF1FF0F34DD546800202EE000F14F
:100A4000080C4FF0010808FA0CF3B1F800C00CEAEA
:100A500003069E4221D183004FF00F0C0CFA03F7DE
:100A6000BC4305FA03FC4CEA040491F803C0BCF152
:100A7000280F05D100F1080C08FA0CF8C2F8148010
:100A800091F803C0BCF1480F07D100F1080C4FF0FA
:100A9000010808FA0CF8C2F81080401C0828CED3D0
:100AA0005460BDE8F0810246002093680B400BB112
:100AB000012000E0002070474161704701617047EC
:100AC00000BFFEE708B50121082000F055F9072016
:100AD000ADF8000048208DF8030069460148FFF793
:100AE00057FF08BD000C014008B50121102000F09F
:100AF00043F94FF6FF70ADF8000010208DF80300A9
:100B000001208DF8020069460148FFF741FF08BD4A
:100B10000010014010B5012000F002F810BD0000E7
:100B200010B504464FF480711648FFF7C5FF012049
:100B300000F008FA4FF400711248FFF7BDFF0120E2
:100B400000F000FA4FF480610E48FFF7B5FF012076
:100B500000F0F8F9E1B20B48FFF7B0FFE043C1B293
:100B60000848FFF7A9FF4FF480610648FFF7A6FF8A
:100B7000012000F0E7F94FF480610248FFF79CFF85
:100B800010BD00000010014010B50446012000F027
:100B9000CCF94FF480711648FFF790FF012000F068
:100BA000D1F94FF400711248FFF786FF012000F0E1
:100BB000C9F94FF480610E48FFF77EFF012000F075
:100BC000C1F9E1B20A48FFF779FFE043C1B2084832
:100BD000FFF772FF4FF480610548FFF76FFF0120B8
:100BE00000F0B0F94FF480610148FFF765FF10BDD8
:100BF0000010014010B5FFF777FF4FF480711D48DA
:100C0000FFF75AFF4FF400711A48FFF755FF4FF4F2
:100C100080611848FFF750FF052000F086F9382062
:100C2000FFF77EFF012000F080F93820FFF778FF02
:100C3000012000F07AF93820FFF772FF012000F060
:100C400074F90820FFF76CFF012000F06EF9012015
:100C5000FFF766FF012000F068F90620FFF760FF4C
:100C6000012000F062F90C20FFF75AFF012000F08C
:100C70005CF910BD0010014070B504460D4625B961
:100C800044F0C000FFF74CFF11E0012D04D144F007
:100C90008000FFF745FF0AE0022D04D144F09400E4
:100CA000FFF73EFF03E044F0D400FFF739FF70BDCB
:100CB00070B505460E46144631462846FFF7DCFF60
:100CC00003E02078FFF760FF641C20780028F8D14B
:100CD00070BD00BFFEE7704770B5002100230F22F2
:100CE000C47804B3154C246804F4E064C4F5E064EB
:100CF000210AC1F10403CA40447804FA03F184785C
:100D00001440214309010E4C0678A155047804F0E3
:100D10001F050124AC4005786D11AD0005F1E025FB
:100D2000C5F8004109E0047804F01F050124AC4037
:100D3000044D0678761145F8264070BD0CED00E0B4
:100D400000E400E080E100E002490143024A116052
:100D5000704700000000FA050CED00E0704700004D
:100D600001460020034A506820F440400843506088
:100D7000704700000010024029B1064A9269024300
:100D8000044B9A6104E0034A92698243014B9A61E1
:100D9000704700000010024029B1064AD2680243A1
:100DA000044BDA6004E0034AD2688243014BDA6004
:100DB000704700000010024008B501210820FFF72D
:100DC000DBFF4FF4F060ADF8000010208DF8030059
:100DD00003208DF8020069460448FFF7D9FD4FF45F
:100DE00060710248FFF768FE08BD0000000C01407A
:100DF000704710B500F002F810BD00000CB50020DF
:100E0000019000902548006840F480302349086034
:100E100000BF2248006800F4003000900198401C98
:100E20000190009818B90198B0F5A06FF1D11B4856
:100E3000006800F4003010B10120009001E00020B3
:100E400000900098012828D11548006840F0100053
:100E5000134908600846006820F00300086008464F
:100E6000006808600D4840680C49486008464068C2
:100E700048600846406848600846406820F0030023
:100E800048600846406840F00100486000BF0348E1
:100E9000406800F00C000428F9D10CBD001002409D
:100EA000002002407047000010B51348006840F071
:100EB00001001149086008464068104908400E4981
:100EC0004860084600680E4908400B49086008461B
:100ED000006820F4802008600846406820F4FE0086
:100EE00048604FF41F008860FFF783FF4FF00060F9
:100EF0000449086010BD0000001002400000FFF827
:100F0000FFFFF6FE08ED00E000BFFEE7002107E06E
:100F10004FF47A7100BF0A00A1F1010399B2FAD12E
:100F20000200A0F10100F3D1704710B5044603E0C0
:100F300040F24C4000F006F82000A4F101018CB210
:100F4000F6D110BD06E0142100BF0A00A1F1010393
:100F500099B2FAD10200A0F1010398B2F3D170471F
:100F6000400000BF0100A0F10100FBD1704700006C
:100F70004FF4A060FFF7E8FEFFF7A4FDFFF71CFFAA
:100F8000FFF79EFCFFF736FEFFF7C4FDFFF756FBA9
:100F9000FFF752FA9AE000BFFFF760FBC0B1FFF71E
:100FA00043FB4B4908800888C11700EB1161091207
:100FB000474A11800A20FFF7A9FFFFF72BFB45499D
:100FC00008800888C11700EB11610912414A11809D
:100FD000404803883E4802883FA14348FFF7F8F89D
:100FE000414A00210846FFF763FE4048007860B997
:100FF0003F4803883F4802883FA14348FFF7E8F88D
:10100000414A01210020FFF753FE384800780128AB
:101010000CD137480388374802883CA13A48FFF78B
:10102000D7F8394A01210020FFF742FE2F48007807
:1010300002280CD12E4803882E48028837A1324856
:10104000FFF7C6F8304A01210020FFF731FE27489C
:10105000007803280CD1264803882648028833A14B
:101060002948FFF7B5F8284A01210020FFF720FEA4
:1010700029A13248FFF7ACF8304A02210020FFF7DF
:1010800017FE25A12E48FFF7A3F82D4A03210020C3
:10109000FFF70EFE0E48008816490988884203DDD6
:1010A00001202849086002E000202649086009481C
:1010B00000880F490988884204DA01202149091D66
:1010C000086003E000201F49091D086063E7000075
:1010D0000000002002000020543A25642020202037
:1010E000483A2564200A0000100000200800002073
:1010F0000600002004000020202025642020202558
:10110000642020200A000000240000202020256404
:101110005E2020256420200A000000002020256495
:1011200020202025645E20200A0000002020256465
:1011300020202025642020205E0A000038000020A6
:101140004C0000209C812142681100080000002012
:10115000100000002801000878110008100000208D
:10116000B006000044010008000000001B0032002F
:08117000000000000000000077
:04000005080000ED02
:00000001FF
